:100000000C943A000C9457000C9457000C94570031
:100010000C9457000C9457000C9457000C94570004
:100020000C9457000C9457000C9457000C945700F4
:100030000C9457000C9457000C9457000C945700E4
:100040000C9457000C9457000C9457000C945700D4
:100050000C9457000C9457000C9457000C945700C4
:100060000C9457000C9457006364696E6F7073753D
:1000700078585B0011241FBECFEFD8E0DEBFCDBFA4
:1000800012E0A0E0B1E0E8EFF3E102C005900D92CC
:10009000A036B107D9F722E0A0E6B2E001C01D9278
:1000A000A636B207E1F70E94A8010C94FA090C9455
:1000B00000000F931F93CF93DF93FB01C82FD92F1D
:1000C0009B01205F3F4FA82FB92F80818C938181A6
:1000D00011968C931197828112968C93129783813B
:1000E00013968C93139734961496E217F30769F7D7
:1000F00024E030E0FE010C859D857E856F85A90199
:1001000043705527452B09F5892F90E08F5C9E4F52
:10011000DC011C91872F90E08F5C9E4FDC019C914D
:10012000462F50E04F5C5E4FDA017C91A02FB0E08B
:10013000AF5CBE4F6C91D901B695A795B695A795C2
:10014000AA5DBE4FAC910A2F01274081A02FA427A2
:10015000A08B81818927818B92819727928B8381C4
:100160008627838B2F5F3F4F24962C32310511F663
:10017000DF91CF911F910F9108959B0190E1899F8D
:10018000400D511D11244C5F5F4F605F7F4F0EC0CB
:100190008D919081892781934A175B07C9F72C5F5E
:1001A0003F4F4C5F5F4F2617370721F0DA01149756
:1001B000F901EECF0895982F991F9927991F2BE1E8
:1001C000929F902D1124880F892708953F924F9276
:1001D0005F926F927F928F929F92AF92BF92CF92D7
:1001E000DF92EF92FF920F931F93CF93DF935C0107
:1001F0006B01AB01BC0180E00E94BD009924939487
:1002000085010C5F1F4F750180E1E80EF11CE501CF
:10021000C5010EC0EC91F0E0EF5CFE4F40814C93C5
:100220001496A217B307B1F701960817190729F01A
:100230009C01205F3F4FDC01EDCFF501818195816D
:100240009183918595839585918785878281928514
:100250009283828786819685968386878381978518
:10026000938393859787978193878783FAE09F1677
:1002700079F148807980842D87258A805B80382CAD
:100280003524682E63240E94DB008425862588831C
:10029000872D88250E94DB00872586258983832D6D
:1002A0000E94DB008825882E86248A82842D85255D
:1002B0000E94DB00852568266B822496CE15DF051B
:1002C000C1F6A601B501892D0E94BD0093949FCF70
:1002D000A601B5018AE00E94BD00DF91CF911F9178
:1002E0000F91FF90EF90DF90CF90BF90AF909F90D5
:1002F0008F907F906F905F904F903F9008950E94F5
:10030000590008959C01CB01B9010E94E6000895AF
:10031000E0ECF0E0908195FFFDCF8093C60080E097
:1003200090E00895E0ECF0E080818823ECF7809184
:10033000C60008951092C50083E38093C400E1ECE9
:10034000F0E080818861808386E08093C200089518
:10035000CF93DF93CDB7DEB7CE53D1400FB6F8942D
:10036000DEBF0FBECDBF0E949A01FE0131968EE026
:10037000DF011D928A95E9F783E08C8388E891E09C
:100380009A87898782E991E09C878B87A0E6B2E013
:100390001396FC93EE931297ED93FC9386E1E0E0C5
:1003A000F1E0DE011F9601900D928A95E1F780E160
:1003B000E6E1F1E0DE01959601900D928A95E1F774
:1003C00080E1E6E1F1E0DE01D59601900D928A959B
:1003D000E1F7579A81E392E09F938F930E94B103D4
:1003E0000F900F907E01BBEFEB1ABEEFFB0A0F2EB2
:1003F000F5E42F2EF2E03F2EF02D2E01E5E34E0E18
:10040000511CCE010F96C75CDE4F99838883C95378
:10041000D140D2015096C55CDE4FB983A883CB533F
:10042000D1400BE312E0F701B196C35CDE4FF983D4
:10043000E883CD53D140FF92EF9288E392E09F93FF
:100440008F93E0E6F2E081818F9380818F930E9409
:100450009F03D7018C910F900F900F900F900F90EA
:100460000F908B3609F04EC06E01BFE0CB0ED11C51
:100470003E01EFE16E0E711CF60111926E167F06C1
:10048000E1F706C18A3009F010C123C0D5018C9173
:100490008D30F9F08A30E9F09F928F921F930F937D
:1004A000BF92AF920E94FE03B2E0AB0EB11CEFEF21
:1004B0008E1A9E0A0F900F900F900F900F900F9032
:1004C000C35CDE4F88819981CD53D140A816B9060F
:1004D000E9F68BE690E00E94C703D6018D916D018D
:1004E0001F928F931F930F930E94B1030F900F9051
:1004F0000F900F90C614D70481F786E392E00E9414
:10050000CE0399CF853609F066C0FE01B5961192EB
:100510004E165F06E1F7C3C08A3009F0E9C023C078
:10052000F60180818D30F9F08A30E9F0BF92AF9208
:100530001F930F93DF92CF920E94FE03F2E0CF0E43
:10054000D11C8FEFA81AB80A0F900F900F900F9040
:100550000F900F90C35CDE4FA881B981CD53D1407D
:10056000CA16DB06E9F6BE01615F7F4FCE018B5BE9
:100570009F4F0E947F0180E1FE01B596D20101905C
:100580000D928A95E1F75F9AB201CE018B5B9F4F86
:100590000E9482015F9885E690E00E94C703620195
:1005A000F60181916F011F928F931F930F930E9409
:1005B000B1030F900F900F900F90C55CDE4F8881B4
:1005C0009981CB53D140C816D90651F786E392E002
:1005D0000E94CE0330CF8336E1F45F9A2AEF30E0F9
:1005E00005C00197F1F72150310919F08AEF90E029
:1005F000F8CF5F9884EF8F9384E28F9380E492E04A
:100600009F938F930E94B1030F900F900F900F90C4
:1006100012CF8C3681F5C95CDE4F19821882C75320
:10062000D140C95CDE4F88819981C753D140892B65
:1006300009F479C013C0C95CDE4F88819981C75322
:10064000D140892B59F43F922F920E94B10391E03F
:10065000C91AD1080F900F9071F708C08CE492E08E
:100660009F938F930E94B1030F900F9086E392E0C7
:100670000E94CE03E0CEFF92EF9281E592E09F933D
:100680008F930E94B1030F900F900F900F90D3CED5
:10069000D70111968C918D3009F0F4CE1ACFF70165
:1006A00081818D3009F038CF5ECFC65CDE4FF88196
:1006B000CA53D140FF93C75CDE4F8881C953D140F4
:1006C0008F931F930F93C70101969F938F930E945F
:1006D000FE034E0190E1890E911C0F900F900F9038
:1006E0000F900F900F905701A3E0AA0EB11CCECE31
:1006F000CE0185969F938F931F930F93C701019609
:100700009F938F930E94FE035E01B6E2AB0EB11C75
:100710000F900F900F900F900F900F906701E3E0F4
:10072000CE0ED11CFDCE3F922F920E94B1030F90AE
:100730000F900F2EF3E6CF2ED12CF02D7CCFA0E022
:10074000B0E0E5EAF3E00C94D309AE01475F5F4FF8
:100750006F8178858D819E810E949407E2E00C94E0
:10076000EF09A0E0B0E0E7EBF3E00C94D309AE01B1
:100770004B5F5F4FFA0161917191AF01809162020D
:10078000909163020E941704E2E00C94EF096091DB
:100790006202709163020E940D0908950F931F93E6
:1007A000CF93DF93E0916202F0916302238121FFF6
:1007B0001BC08C01D0E0C0E0F80181918F016091F5
:1007C000620270916302DB011896ED91FC9119971A
:1007D000882331F00995892B79F3DFEFCFEFECCF48
:1007E0008AE00995892B19F08FEF9FEF02C08D2FBA
:1007F0009C2FDF91CF911F910F910895AEE0B0E053
:10080000E4E0F4E00C94D30985E08C838B899C8927
:100810009A838983AE01495E5F4F6D897E89CE01DF
:1008200001960E9494072E96E2E00C94EF09ABE04B
:10083000B0E0EDE1F4E00C94C3096C017B018A01A6
:10084000FC0117821682838181FFCCC1CE01019603
:100850003C01F6019381F70193FD859193FF81910E
:100860007F01882309F4BAC1853239F493FD85915B
:1008700093FF81917F01853229F4B60190E00E94B7
:100880000D09E7CF912C212C312CFFE1F315D8F085
:100890008B3279F038F4803279F08332A1F4232D51
:1008A00020611DC08D3261F0803369F4232D2160F9
:1008B00016C0832D8260382EE32DE4603E2E2AC0C0
:1008C000F32DF8601DC037FC2DC020ED280F2A3015
:1008D00040F08E32B9F436FC81C1232D2064322ED3
:1008E00019C036FE06C08AE0989E200D1124922E73
:1008F00011C0EAE02E9E200D1124222EF32DF0626D
:100900003F2E08C08C3621F4832D8068382E02C01B
:10091000883641F4F70193FD859193FF81917F0122
:100920008111B3CF982F9F7D9554933028F40C5F9D
:100930001F4F9FE399830DC0833631F0833771F0E9
:10094000833509F059C021C0F801808189830E5F89
:100950001F4F88248394912C530113C02801F2E087
:100960004F0E511CF801A080B18036FE03C0692DE6
:1009700070E002C06FEF7FEFC5010E94C4084C0118
:100980008201F32DFF773F2E16C0280122E0420E90
:10099000511CF801A080B18036FE03C0692D70E0C3
:1009A00002C06FEF7FEFC5010E94B9084C01F32D23
:1009B000F0683F2E820133FC1BC0822D90E0881628
:1009C0009906B0F4B60180E290E00E940D092A94E5
:1009D000F4CFF50137FC859137FE81915F01B601B7
:1009E00090E00E940D0921102A9421E0821A9108BA
:1009F0008114910471F7E8C0843611F0893641F50D
:100A0000F80137FE07C060817181828193810C5F9C
:100A10001F4F08C060817181072E000C880B990B55
:100A20000E5F1F4FF32DFF763F2E97FF09C0909565
:100A30008095709561957F4F8F4F9F4FF0683F2E47
:100A40002AE030E0A3010E946209882E861845C082
:100A5000853731F4232D2F7EB22E2AE030E025C0D9
:100A6000932D997FB92E8F36C1F018F4883579F01F
:100A7000B5C0803719F0883721F0B0C0E92FE061A8
:100A8000BE2EB4FE0DC0FB2DF460BF2E09C034FE97
:100A90000AC0292F2660B22E06C028E030E005C02B
:100AA00020E130E002C020E132E0F801B7FE07C0EB
:100AB00060817181828193810C5F1F4F06C06081CC
:100AC000718180E090E00E5F1F4FA3010E946209D8
:100AD000882E8618FB2DFF773F2E36FE0DC0232D66
:100AE0002E7FA22E891458F434FE0BC032FC09C0AC
:100AF000832D8E7EA82E05C0B82CA32C03C0B82C45
:100B000001C0B92CA4FE0FC0FE01E80DF11D8081CB
:100B1000803321F49A2D997EA92E09C0A2FE06C029
:100B2000B394B39404C08A2D867809F0B394A3FCDF
:100B300011C0A0FE06C0B21488F4280C922C9B1899
:100B40000EC0B21460F4B60180E290E00E940D097C
:100B5000B394F7CFB21418F42B1802C0982C212CA0
:100B6000A4FE10C0B60180E390E00E940D09A2FE31
:100B700017C0A1FC03C088E790E002C088E590E0C0
:100B8000B6010CC08A2D867859F0A1FE02C08BE216
:100B900001C080E2A7FC8DE2B60190E00E940D0941
:100BA000891438F4B60180E390E00E940D099A940C
:100BB000F7CF8A94F301E80DF11D8081B60190E032
:100BC0000E940D098110F5CF222009F442CEB60112
:100BD00080E290E00E940D092A94F6CFF60186810A
:100BE000978102C08FEF9FEF2B96E2E10C94DF0913
:100BF00020FD09C0FC0123FD05C022FF02C0738354
:100C0000628351834083089544FD17C046FD17C099
:100C1000AB01BC01DA01FB01AA0FBB1FEE1FFF1FD6
:100C20001094D1F74A0F5B1F6E1F7F1FCB01BA01D3
:100C3000660F771F881F991F09C033E001C034E099
:100C4000660F771F881F991F3150D1F7620F711DF2
:100C5000811D911D08950F931F93CF93DF938C01F6
:100C6000C8010E94CF08EC0197FD08C00E94A508AA
:100C7000892BB1F7B801CE010E944909CE01DF915D
:100C8000CF911F910F9108958F929F92AF92BF9233
:100C9000EF92FF920F931F93CF93DF938C01D62F88
:100CA0007A01B22E0E94CF089C0133272B323105E6
:100CB00031F02D32310561F48B2D8068B82ED15082
:100CC00011F480E068C0C8010E94CF0897FDF9CFF9
:100CD000CB2DCD7F2B2D207309F58033F9F4AA2479
:100CE000AA94AD0E09F443C0C8010E94CF0897FD35
:100CF0003EC09C012F7D33272835310549F4C2645D
:100D0000D250A9F1C8010E94CF0897FF07C02FC099
:100D1000B6FE02C0C26001C0C261DA2D812C912CE6
:100D2000540120ED280F283080F0C4FF04C0B80122
:100D30000E94490919C02A3040F0C6FFF8CF2F7D24
:100D40003FEE320F363098F727504C2FC501B401D3
:100D50000E9404064B015C01C260D15059F0C801E9
:100D60000E94CF0897FFDDCFC1FD04C0AACF812C20
:100D7000912C5401C7FF08C0B094A0949094809423
:100D8000811C911CA11CB11C2C2FB501A401C70111
:100D90000E94F80581E0DF91CF911F910F91FF90A4
:100DA000EF90BF90AF909F908F900895A0E2B0E039
:100DB000ECEDF6E00C94C6095C01962E7A01F9017F
:100DC0008E010F5F1F4F680180E2D8011D928A9546
:100DD000E9F7D50113968C9080E090E0612C712C9E
:100DE00030E061E070E083FC259183FE21918F016A
:100DF000522E211103C080E090E092C02E3511F4F4
:100E0000009751F1432F50E0481759073CF42D3516
:100E100059F12D3219F4772009F103C0772009F434
:100E20006AC0452D469546954695D601A40FB11D3D
:100E3000452D47708B0102C0000F111F4A95E2F744
:100E4000A8015C91452B4C93651459F0561410F48D
:100E50005394E7CF5A94E5CF31E004C077247394DC
:100E600001C0712C0196BFCF772019F08E8180626E
:100E70008E83311103C08824839417C0F6019E012C
:100E80002F5D3F4F8081809581932E173F07D1F7CB
:100E9000F2CFE114F10429F0D7018C93F7013196D8
:100EA0007F019A94812C9920F9F0C5010E94CF0806
:100EB00097FD18C0FC01FF2723E0F595E7952A95DB
:100EC000E1F7EC0DFD1D208130E0AC0147705527A6
:100ED00002C0359527954A95E2F720FDDACFB50196
:100EE0000E944909811087CFE114F10411F0D70164
:100EF0001C92C80115C0422F469546954695D601CD
:100F0000A40FB11D422F47708B0102C0000F111FAB
:100F10004A95E2F7A8015C91452B4C93622EA2CF33
:100F2000A096EFE00C94E209A0E0B0E0EAE9F7E077
:100F30000C94C6096C01EB015A01FC011782168260
:100F4000512CF601E380FE01E3FC8591E3FE8191E3
:100F5000182FEF01882309F4EEC090E00E94A50845
:100F6000892B21F0C6010E942B06EBCF153241F4EC
:100F7000FE01E3FC1591E3FE1191EF01153281F4BE
:100F8000C6010E94CF0897FDD4C0412F50E09C01BC
:100F9000332724173507A9F2B6010E944909CBC0AF
:100FA0001A3239F4E3FC1591E3FE1191EF0101E0EF
:100FB00001C000E0F12C20ED210F2A3080F4026006
:100FC0006F2D70E080E090E040E20E940406F62E73
:100FD000FE01E3FC1591E3FE1191EF01ECCF01FF5F
:100FE00003C0F11003C0A7C0FF24FA94183619F00B
:100FF0001C3651F010C0FE01E3FC1591E3FE119187
:10100000EF01183641F408600460FE01E3FC15911D
:10101000E3FE1191EF01112309F48DC0612F70E0FF
:1010200088E690E00E94AE08892B09F484C000FD98
:1010300007C0F50180809180C50102965C0102C065
:10104000812C912C1E3651F4F6014681578160E0C7
:1010500070E0202FC4010E94F80573CF1336A9F465
:1010600001FD02C0FF24F394C6010E94CF0897FD42
:1010700060C08114910429F0F4018083C4010196B9
:101080004C01FA94F110F0CF50C01B3559F49E0179
:10109000A4016F2DC6010E94D606EC01892B09F030
:1010A00044C03EC0C6010E942B0697FD42C01F36B9
:1010B00061F128F4143639F1193651F128C013378B
:1010C00071F0153701F123C08114910429F0F40166
:1010D0006082C40101964C01FA94FF2071F0C601B0
:1010E0000E94CF083C0197FD08C00E94A508892BEB
:1010F00059F3B601C3010E94490981149104A9F072
:10110000F401108212C0006203C0006101C00064DB
:10111000202FA4016F2DC6010E944406811105C035
:10112000F6018381807329F406C000FD0ACF539431
:1011300008CF552019F0852D90E002C08FEF9FEF6A
:10114000CDB7DEB7EFE00C94E20991110C94C00921
:10115000803219F089508550C8F70895FC01059038
:10116000061621F00020D9F7C00108953197CF016C
:101170000895FC010590615070400110D8F78095EA
:1011800090958E0F9F1F0895FC0161507040019053
:101190000110D8F7809590958E0F9F1F0895CF93DB
:1011A000DF93EC012B8120FF33C026FF0AC02F7B89
:1011B0002B838E819F8101969F838E838A8190E00D
:1011C00029C022FF0FC0E881F9818081082E000C20
:1011D000990B009719F420622B831AC03196F9837A
:1011E000E8830EC0EA85FB85099597FF09C02B812E
:1011F000019611F080E201C080E1822B8B8308C050
:101200002E813F812F5F3F4F3F832E83992702C05E
:101210008FEF9FEFDF91CF9108950F931F93CF939F
:10122000DF93FB01238121FD03C08FEF9FEF2CC0D3
:1012300022FF16C04681578124813581421753070A
:1012400044F4A081B1819D012F5F3F4F3183208302
:101250008C93268137812F5F3F4F3783268314C0BD
:101260008B01EC01FB010084F185E02D0995892BB0
:10127000E1F6D80116968D919C91179701961796D5
:101280009C938E931697CE01DF91CF911F910F9172
:101290000895FB01238120FF12C026FD10C08F3F5F
:1012A0003FEF930761F082832F7D206423832681A3
:1012B00037812150310937832683992708958FEF8D
:1012C0009FEF0895FA01AA27283051F1203181F1CA
:1012D000E8946F936E7F6E5F7F4F8F4F9F4FAF4F3E
:1012E000B1E03ED0B4E03CD0670F781F891F9A1F51
:1012F000A11D680F791F8A1F911DA11D6A0F711D05
:10130000811D911DA11D20D009F468943F912AE010
:10131000269F11243019305D3193DEF6CF010895F8
:10132000462F4770405D4193B3E00FD0C9F7F6CF29
:10133000462F4F70405D4A3318F0495D31FD4052F1
:10134000419302D0A9F7EACFB4E0A6959795879587
:1013500077956795BA95C9F7009761057105089566
:101360009B01AC010A2E0694579547953795279512
:10137000BA95C9F7620F731F841F951FA01D0895AA
:101380009927882708952F923F924F925F926F92EC
:101390007F928F929F92AF92BF92CF92DF92EF9205
:1013A000FF920F931F93CF93DF93CDB7DEB7CA1B86
:1013B000DB0B0FB6F894DEBF0FBECDBF09942A88B1
:1013C000398848885F846E847D848C849B84AA8459
:1013D000B984C884DF80EE80FD800C811B81AA81E6
:1013E000B981CE0FD11D0FB6F894DEBF0FBECDBFB1
:0813F000ED010895F894FFCF10
:1013F8002B7E151628AED2A6ABF7158809CF4F3C21
:10140800158809CF4F3C6BC1BEE22E409F96E93D3F
:101418007E117393172A8D01020408102040801B47
:1014280036637C777BF26B6FC53001672BFED7ABD9
:1014380076CA82C97DFA5947F0ADD4A2AF9CA4728E
:10144800C0B7FD9326363FF7CC34A5E5F171D83106
:101458001504C723C31896059A071280E2EB27B232
:101468007509832C1A1B6E5AA0523BD6B329E32F59
:101478008453D100ED20FCB15B6ACBBE394A4C588D
:10148800CFD0EFAAFB434D338545F9027F503C9FEF
:10149800A851A3408F929D38F5BCB6DA2110FFF30E
:1014A800D2CD0C13EC5F974417C4A77E3D645D1939
:1014B8007360814FDC222A908846EEB814DE5E0BFA
:1014C800DBE0323A0A4906245CC2D3AC629195E467
:1014D80079E7C8376D8DD54EA96C56F4EA657AAEB2
:1014E80008BA78252E1CA6B4C6E8DD741F4BBD8B40
:1014F8008A703EB5664803F60E613557B986C11D38
:101508009EE1F8981169D98E949B1E87E9CE5528DB
:10151800DF8CA1890DBFE6426841992D0FB054BBFD
:101528001668656C6C6F0D002573002530327800E5
:1015380025750D0A006C6F636B65640077696E2111
:1015480000756E6B6E6F776E3A2025730D0A00007A
:00000001FF
